:100000000C94E4060C9428070C9428070C942807F9
:100010000C9428070C9428070C9428070C942807A4
:100020000C9428070C9428070C944B2B0C941D2C33
:100030000C94C9210C9428070C9428070C942807C9
:100040000C9428070C9428070C9428070C94280774
:100050000C9428070C9430220C9428070C94280741
:100060000C9428070C9428070C9428070C94280754
:100070000C9428070C9428070C9428070C94280744
:100080000C9428070C9428070C9428070C94280734
:100090000C9428070C9428070C9428070C94280724
:1000A0000C9428070C9428070C9428073F0749074D
:1000B00053075D07660770077B073B084108450843
:1000C00048084C085008540858085D08610865083D
:1000D00069086C087008740878087C0881089C1707
:1000E0009C17D617D61715183718CD19CD197D18A6
:1000F000CD19241924199B19A219CD19C819311920
:10010000311931193119311931193119311931199F
:10011000311931193119311931193119311943197D
:1001200053195A1961196B19611A611A741A741AE0
:100130006A1A741A741A741A611A611A701A741A83
:10014000741A701A822CA92C972DA92C972DF12C9A
:10015000142D972D6A2D792D07634236B79BD8A7AA
:100160001A39685618AEBAAB558C1D3CB7CC5763DC
:10017000BD6DEDFD753EF6177231BF000000803F8A
:1001800005A84CCDB2D44EB93836A9020C50B9915D
:100190008688083CA6AAAA2ABE000000803F00F07C
:1001A00001F002F003F004F005F006F0155C1E000B
:1001B0001F0020002100220023002400250026002B
:1001C00027002D002E00000031002B00000014003D
:1001D0001A000800150017001C0018000C0012007F
:1001E00013002F0030002A00390000000400160020
:1001F000070009000A000B000D000E000F0033007D
:10020000340028000000E10000001D001B00060073
:1002100019000500110010003600370038000000FA
:10022000E5000000E000E3000000E2002C00000018
:100230002C0000002C000000E600015100000251DB
:10024000E40035003A003B003C003D003E003F002A
:10025000400041004200430044004500010001000D
:1002600001000000010052000100BA5CBD5CC15CED
:10027000BB5C0100520048004A004D0046000100EE
:100280000000500051004F000100BE5CC25C010044
:10029000500051004F004E0001000000010001001D
:1002A0000100010001000100010001000100010046
:1002B00049004C00000001000100010001000000A5
:1002C0000100010000000100000001000000010029
:1002D0000100010001000100010001300230033083
:1002E0000430053006300730083009300A300B3052
:1002F0000C300100010001000000010001000100BC
:1003000001000100010001000100010001000100E5
:1003100001000100010000000100010001000100D6
:1003200001000100010001000100010001000100C5
:1003300000000100010001000100010001000100B6
:1003400001000100010001000100000001000100A6
:100350000100010000000100010000000100000098
:100360000100000001000100010001000100010086
:100370000100010001000100010001000100010075
:100380000100010001000100010001000100000066
:100390000100010001000100010001000100010055
:1003A0000100010001000100010001000000010046
:1003B0000100010001000100010001000100010035
:1003C0000100010001000000010001000100010026
:1003D0000100010001000100010001000100010015
:1003E0000000010001000100010000000100010007
:1003F00000000100000001000000010001000100F8
:1004000001000100010001000100010001000100E4
:1004100001000100010001000100010001000100D4
:1004200001000100000001000100010001000100C5
:1004300001000100010001000100010001000100B4
:1004400001000000010001000100010001000100A5
:100450000100010001000100010001000000010095
:100460000100010001000100010001000100010084
:100470000100010001000000010001000100010075
:100480000000010001000000010000000100000068
:100490000100010001000100010001000100010054
:1004A0000100010001000100010001000100010044
:1004B0000100010001000100010000000100010035
:1004C0000100010001000100010001000100010024
:1004D0000100010001000100000001000100010015
:1004E0000100010001000100010001000100010004
:1004F00001000000010001000100010001000100F5
:1005000001000100010001000100010000000100E4
:1005100001000100010000000100010000000100D5
:1005200000000100000001000100010001000100C5
:1005300001000100010001000100010001000100B3
:1005400001000100010001000100010001000100A3
:100550000000010001000100010001000100010094
:100560000100010001000100010001000100000084
:100570000100010001000100010001000100010073
:100580000100010001000100000001000100010064
:100590000100010001000100010001000100010053
:1005A0000100000001000100010001000000010045
:1005B0000100000001000000010000000100010036
:1005C0000100010001000100010001000100010023
:1005D0000100010001000100010001000100010013
:1005E0000100010001000000010001000100010004
:1005F00001000100010001000100010001000100F3
:1006000001000100000001000100010001000100E3
:1006100001000100010001000100010001000000D3
:1006200001000100010001000100010001000100C2
:1006300001000100010001000000010001000100B3
:1006400001000000010001000000010000000100A5
:100650000000010001000100010001000100010093
:100660000100010001000100010001000100010082
:100670000100010001000100010001000000010073
:100680000100010001000100010001000100010062
:100690000100010001000100010000000100010053
:1006A0000100010001000100010001000100010042
:1006B0000100010000000100010001000100010033
:1006C0000100010001000100010001000100000023
:1006D0000100010001000100000001000100000014
:1006E0000100000001000000010001000100010004
:1006F00001000100010001000100010001000100F2
:1007000001000100010001000100010001000100E1
:1007100001000000010001000100010001000100D2
:1007200001000100010001000100010001000100C1
:1007300000000100010001000100010001000100B2
:1007400001000100010001000100000001000100A2
:100750000100010001000100010001000100010091
:100760000100010000000100010001000100000083
:100770000100010000000100000001000000010074
:100780000100010001000100010001000100010061
:100790000100010001000100010001000100010051
:1007A0000100010001000100000001000100010042
:1007B0000100010001000100010001000100010031
:1007C0000100010001000000010001000100010022
:1007D0000100010001000100010001000100010011
:1007E0000000010001000100010001000100010002
:1007F00001000100010001000100000001000100F2
:1008000001000100000001000100000001000000E3
:1008100001000000010001000100010001000100D1
:1008200001000100010001000100010001000100C0
:1008300001000100010001000100010001000000B1
:1008400001000100010001000100010001000100A0
:100850000100010001000100010001000000010091
:100860000100010001000100010001000100010080
:100870000100010001000000010001000100010071
:100880000100010001000100010001000100010060
:100890000000010001000100010000000100010052
:1008A0000000010000000100000001000100010043
:1008B0000100010001000100010001000100010030
:1008C0000100010001000100010001000100010020
:1008D0000100010000000100010001000100010011
:1008E0000100010001000100010001000100010000
:1008F00001000000010001000100010001000100F1
:1009000001000100010001000100010000000100E0
:1009100001000100010001000100010001000100CF
:1009200001000100010000000100010001000100C0
:1009300000000100010000000100000001000000B3
:10094000010001000100010001000100010001009F
:10095000010001000100010001000100010001008F
:100960000100010001000100010000000100010080
:10097000010001000100010001000100010001006F
:100980000100010001000100000001000100010060
:10099000010001000100010001000100010001004F
:1009A0000100000001000100010001000100010040
:1009B0000100010001000100010001000000010030
:1009C0000100010001000000010001000000010021
:1009D0000000010000000100010001000100010011
:1009E00001000100010001000100010001000100FF
:1009F00001000100010001000100010001000100EF
:100A000000000100010001000100010001000100DF
:100A100001000100010001000100010001000000CF
:100A200001000100010001000100010001000100BE
:100A300001000100010001000000010001000100AF
:100A4000010001000100010001000100010001009E
:100A50000100000001000100010001000000010090
:100A60000100000001000000010000000100010081
:100A7000010001000100010001000100010001006E
:100A8000010001000100010001000100010001005E
:100A9000010001000100000001000100010001004F
:100AA000010001000100010001000100010001003E
:100AB000010001000000010001000100010001002F
:100AC000010001000100010001000100010000001F
:100AD000010001000100010001000100010001000E
:100AE00001000100010001000000010001000100FF
:100AF00001000000010001000000010000000100F1
:100B00000000010001000100010001006801F00087
:100B1000B40078005A007F3F1F6432143214057805
:100B20003C1E1E140A050000000000010101010125
:100B30000101010102020202020202020203030396
:100B40000303030303040404040404050505050565
:100B50000606060606070707070808080809090920
:100B60000A0A0A0A0B0B0B0C0C0C0D0D0D0E0E0FC6
:100B70000F0F101011111112121313141415151652
:100B8000161717181819191A1A1B1C1C1D1D1E1FC1
:100B90001F20202122222324252526272728292A11
:100BA0002B2B2C2D2E2F2F30313233343536363738
:100BB00038393A3B3C3D3E3F40414243444647483A
:100BC000494A4B4C4D4F50515253555657585A5B0A
:100BD0005C5E5F606263646667696A6C6D6E7071AB
:100BE00073747678797B7C7E8081838486888A8B17
:100BF0008D8F91929496989A9B9D9FA1A3A5A7A94A
:100C0000ABADAFB1B3B5B7B9BBBDBFC1C4C6C8CA40
:100C1000CCCFD1D3D6D8DADCDFE1E4E6E8EBEDF0F7
:100C2000F2F5F7FAFCFF0403300000001003410066
:100C30006E006E006500500072006F000000080337
:100C400064006F00750000000403090409026D00D0
:100C5000040100A0FA0904000001030101000921B8
:100C6000110100012240000705810308000A090460
:100C700001000103010200092111010001224D00C0
:100C80000705820308000A090402000103000000AE
:100C90000921110100012236000705830308000A1B
:100CA00009040300010300000009211101000122D1
:100CB0003900070584032000011201100100000023
:100CC00008EDFE606001000102030105010906A1B3
:100CD00001050719E029E71500250195087501812F
:100CE00002050819012905950575019102950175FF
:100CF0000391010507190029F71500250195F875DD
:100D0000018102C005010980A101850216010026AA
:100D100003001A81002A8300751095018100C00527
:100D20000C0901A1018503160100269C021A01008D
:100D30002A9C02751095018100C005010902A101DC
:100D40000901A100050919012905150025019505CD
:100D50007501810295017503810105010930093191
:100D60001581257F95027508810609381581257F33
:100D7000950175088106050C0A38021581257F95B5
:100D80000175088106C0C005010906A10105071902
:100D9000E029E71500250195087501810295017587
:100DA000088101050819012905950575019102952C
:100DB00001750391010507190029FF150026FF00A1
:100DC000950675088100C00011241FBECFEFDAE040
:100DD000DEBFCDBF04B603FE24C08091A602909171
:100DE000A702A091A802B091A9028730904BA7401A
:100DF000B04BB9F41092A6021092A7021092A8026A
:100E00001092A90214BE84B7877F84BF88E10FB611
:100E1000F89480936000109260000FBEE0E0F8E369
:100E2000099511E0A0E0B1E0EEE3F3E602C0059021
:100E30000D92AE33B107D9F722E0AEE3B1E001C0C5
:100E40001D92A63AB207E1F70E9477280C949D31D3
:100E50000C94000080E090E008950895089581E0EA
:100E60000895462F50E04730510508F050C0FA0170
:100E7000EA5AFF4FDC0112968C910C94353188238D
:100E800009F445C00E94B41181E00E94241140E0A1
:100E90003AC08823E1F10E94B41181E00E9424113C
:100EA00040E061E631C0882391F10E94B41181E0F5
:100EB0000E94241140E06FEF27C0882341F10E9477
:100EC000B41181E00E94241140E008C08823F9F0A9
:100ED0000E94B41181E00E9424114FEF6FEF09C00E
:100EE0008823A9F00E94B41181E00E9424114FEFE1
:100EF00060E080E00AC0882351F00E94B41181E0D4
:100F00000E94241140EF60E08FEF0C94760F08955B
:100F100081FF02C0229A01C022982A98089581E098
:100F200008950C942F070E944F1A2FEF84E39CE042
:100F3000215080409040E1F700C000000C94562200
:100F4000FF920F931F93CF93DF938C01FC01C0811D
:100F5000D18180919201811113C08281882349F04F
:100F6000CE010E94951FF82E682FCE010E943B1FD4
:100F700004C0CE010E94691FF82EBE018F2D04C04F
:100F8000CE010E94951FBE010E94D90AEC01B80152
:100F90000E949107882309F491C2B801CE010E94F2
:100FA000630D882309F48AC2C23CFCE5DF0741F4E3
:100FB000F8018281882309F481C20E940A117EC24D
:100FC000C33C8CE5D80708F039C1CB3B9CE5D90779
:100FD00061F4F8018281882309F470C20E946720BD
:100FE0008272E1F00E94AB1169C2CC3BECE5DE07F6
:100FF000C0F0CE3B9CE5D90709F4F1C008F003C16D
:10100000CC3BFCE5DF0709F0F2C0F80182818823C0
:1010100009F454C20E946720827221F30E94A11138
:101020004DC2C531FCE5DF0708F0A4C0C2308CE535
:10103000D80708F478C0F8018281882309F47FC0BA
:101040000E94C620811102C00E94A0200E94E320BD
:1010500090E09093970280939602FE01E350FC4546
:10106000E231F10520F4E35AFF4F0C9435318091C1
:101070009602816003C080919602826080939602FE
:101080004BC0809196028460F9CF8091960213C084
:10109000809196028061F2CF809196028062EECFBD
:1010A000809196028064EACF809196028068E6CFB4
:1010B0008091960284608860E1CF809196028E7F55
:1010C000DDCF809196028D7FD9CF809196028B7F64
:1010D000D5CF8091960213C0809196028F7ECECF9D
:1010E000809196028F7DCACF809196028F7BC6CF6A
:1010F000809196028F77C2CF809196028B7F877FF7
:10110000BDCF9091960297FB882780F921E0822736
:1011100080FB97F990939602809196020E94E720B7
:101120000E944F1ACBC1C1159CE5D90781F0C1308F
:10113000DC45A9F081E08093430180934401C8011C
:10114000DF91CF911F910F91FF900C948F07F801C1
:101150008281882309F4B2C10E949307AFC1F801CC
:101160008281882309F4AAC180912A028160809338
:101170002A02A4C1C531FCE5DF0729F50E946720DA
:10118000382FF801228180910201909103012223DE
:1011900071F03A7A21E009F420E020933E01222305
:1011A00011F065E301C069E20E945C2109C0209151
:1011B0003E01222311F065E301C069E20E9467212C
:1011C0000E9434207BC1CA3BDC4509F0B3CFF80153
:1011D0008281882309F472C10E94E8116FC1F8016D
:1011E0008281882309F46AC10E949B1067C1CD3BAC
:1011F000DC4509F09FCFF8018281882309F45EC1A4
:101200000E9482105BC1F8018281C03CFCE5DF07CF
:1012100031F4882309F452C10E94D5104FC1C13C5A
:10122000DC4530F4882309F449C10E94BA1046C154
:10123000882309F443C10E94EF1040C1C93CECE58A
:10124000DE0749F4F8018281882309F437C188E177
:101250000E94241133C1CA3CFCE5DF0708F088C0B6
:10126000C53C8CE5D807B1F4F8018281882309F4E4
:1012700025C10E94500F663071058105910540F02F
:101280000E94500F683071058105910508F4C6CEA3
:1012900086E0DECFC63C9CE5D90728F5C33CECE5EB
:1012A000DE0739F4F8018281882309F407C181E05F
:1012B000CFCFC43CDC4509F03DCFF80182818823C3
:1012C00009F4FCC00E94500F623071058105910540
:1012D00040F00E94500F653071058105910508F4BA
:1012E0009DCE82E0B5CFF8018281C73CFCE5DF07E7
:1012F000A1F4882309F4E2C00E94500F6F307105F9
:101300008105910540F00E94500F643171058105FF
:10131000910508F483CE8FE09BCFC83CDC45A0F458
:10132000882309F4CBC00E94500F693071058105F4
:10133000910540F00E94500F6E30710581059105B6
:1013400008F46CCE89E084CF882309F4B7C00E94EA
:10135000500F653171058105910540F00E94500FD5
:10136000673171058105910508F458CE85E170CF8C
:10137000CC3CECE5DE0739F5F8018281882361F089
:10138000109244010E94FB219093420180934101FD
:1013900080E20E944C1792C08091440181110FC0DD
:1013A00080914101909142010E940722883C910561
:1013B00030F487E20E94F31587E20E94EB1680E288
:1013C0000E9453177BC0CD3CFCE5DF0708F041C00D
:1013D000CA3C8CE5D807B1F4F8018281882309F46E
:1013E0006DC00E94500F693171058105910540F073
:1013F0000E94500F623271058105910508F40ECEEE
:1014000089E126CFCB3CDC4509F094CEF8018281FE
:10141000882351F0109243010E94FB2190934001D8
:1014200080933F0182E0B5CF8091430181110FC0CD
:1014300080913F01909140010E940722883C9105D4
:1014400030F486E20E94F31586E20E94EB1682E0F9
:10145000B7CFC03DECE5DE0731F4F8018281882387
:1014600069F180E009C0C13DFCE5DF0741F4F80106
:101470008281882319F182E00E9411291FC0CD3C8E
:10148000DC4509F057CEF8018281811179CF809136
:101490004401811194CF80914101909142010E94B9
:1014A0000722883C910508F08ACF80E20E945317FA
:1014B00088E20E94F31588E20E94EB1680E0DF913B
:1014C000CF911F910F91FF9008950C94B10DCF9281
:1014D000DF92EF92FF92863030F4811105C0909137
:1014E00080009F7D04C085E0909180009062909381
:1014F0008000282F30E0AFEFBFEF0E943B3125E0A6
:1015000030E040E050E00E941331C9012C3764E123
:10151000360728F469E070E00E94EB3029C0DA0158
:10152000C9018A50974DAF4FBF4F6627782F892F3B
:101530009A2F25EF38E241E050E00E941331690113
:101540007A01CA01B9010E94DB309B01AC01C701DD
:10155000B6010E94DB30BB27A92F982F872F009759
:1015600021E0A207B10511F0BC0102C06FEF7FEFCF
:1015700070938B0060938A00FF90EF90DF90CF9084
:101580000895269A2E9882E28093800089E18093C4
:1015900081008FEF9FEF90938700809386000C94DB
:1015A000FB250E94C10A0C94AF0D0C9488070C9483
:1015B000D50A9FE0799FF00111249BE4899FE00DFB
:1015C000F11D1124E60FF11DEE0FFF1FE455FE4F34
:1015D000859194910895880F991F82569E4FFC0122
:1015E000859194910895CF93DF930E94D90A0E9428
:1015F000B90CEC01811521E5920708F044C0C11532
:1016000080E5D80708F01FC1C83ED10510F5C03EDF
:10161000D10508F0AAC1C83AD10578F4C53AD10578
:1016200008F09CC0C130D10509F49FC108F456C12F
:10163000C430D10508F099C151C1CD3BD10508F4A2
:1016400098C0C03CD10508F449C1CE01805C910925
:10165000E9C0C11520E3D20780F4C11580E2D807A4
:1016600008F0DEC0C03FD10508F438C1CF3FD10536
:1016700011F008F07AC1D06578C1C11520E4D20715
:1016800008F0DEC0D3C0C11586E5D80768F5C115DE
:1016900025E5D20708F00DC1C11583E5D80750F440
:1016A000C11522E5D20708F0EAC0DC2FCC27C16FB4
:1016B000D06A5BC1C11584E5D80708F0F5C08C2F4E
:1016C0008695869520E2829FC00111249E01237099
:1016D0003327C1E0D0E002C0CC0FDD1F2A95E2F72E
:1016E000C82BD92BDA6841C1C53B2CE5D20709F4D8
:1016F000ECC098F4C33B2CE5D20709F4E0C008F035
:10170000E1C0CE0198558F3F910511F008F0E6C079
:10171000DC2FCC27C06FD06A28C1C83B2CE5D2078C
:1017200009F4D9C060F4C63B2CE5D20709F4D0C057
:10173000C73BDC4509F0D2C0C0E0D2ED16C1CE01F6
:1017400090568115904208F0C9C08D2F8F710E946C
:10175000350DDD27D0628F71D82B07C1C53AD10571
:1017600009F4BFC0C63AD10509F4BEC0C3E8D0E44D
:10177000FCC0C83AD10509F4BAC0C93AD10509F488
:10178000B9C0CA3AD10509F4B8C0CB3AD10509F4B9
:10179000B7C0CC3AD10509F4B6C0CB3BD10509F4AA
:1017A000B5C0CC3BD10509F4B4C0CD3AD10509F49C
:1017B000B3C0C03BD10509F4B2C0CE3AD10509F49B
:1017C000B1C0CF3AD10509F4B0C0C13BD10509F48D
:1017D000AFC0C23BD10509F4AEC0C33BD10509F48B
:1017E000ADC0C43BD10509F4ACC0C53BD10509F47B
:1017F000ABC0C63BD10509F4AAC0C73BD10509F46B
:10180000A9C0C83BD10509F4A8C0C93BD10509F45A
:10181000A7C0CA3BD10509F0A6C0CAE2D6E4A5C05C
:10182000CE019F700E94EB0AEC019FC0CE01992768
:10183000D3FF03C0EC01D86C98C0EC01D06C95C00C
:10184000DF70D06A92C02C2F237081E090E002C03C
:10185000880F991F2A95E2F79C689E0174E03695DF
:1018600027957A95E1F72370922BCF70C695C69590
:1018700020E2C29FE0011124C82BD92B76C08C2F07
:101880008695869520E2829FC00111249E012370D7
:101890003327C1E0D0E002C0CC0FDD1F2A95E2F76C
:1018A000C82BD92BDC6861C0DC2FCC27C46FD06A71
:1018B0005CC0CF71DD27DC2FCC27D06256C0C0E0E2
:1018C000D4ED53C0C0E0D5ED50C0C0E0D1ED4DC067
:1018D000C0E0D0ED4AC0C0E0D3ED47C0C0E0D0E0EA
:1018E00044C0C1E8D0E441C0C2E8D0E43EC0C2EE8A
:1018F000D4E43BC0C9EED4E438C0CAEED4E435C069
:10190000C5EBD4E432C0C6EBD4E42FC0C3EBD4E4BF
:101910002CC0C4EBD4E429C0C7EBD4E426C0CCEC83
:10192000D4E423C0CDECD4E420C0C3E8D5E41DC08A
:10193000CAE8D5E41AC0C2E9D5E417C0C4E9D5E4C1
:1019400014C0C1E2D6E411C0C3E2D6E40EC0C4E2C2
:10195000D6E40BC0C5E2D6E408C0C6E2D6E405C0B2
:10196000C7E2D6E402C0C0E0D4E4CE01DF91CF915B
:1019700008958238910549F1B0F48133910509F455
:1019800059C048F48932910509F44FC08A32910553
:1019900009F455C008958533910509F441C0893390
:1019A000910599F00895833E910531F138F4803E18
:1019B000910591F0823E9105A9F00895863E91052A
:1019C00001F1873E910539F108952091960220FD9D
:1019D0003BC021FD39C008958091960280FF34C03C
:1019E00089E341C08091960282FF32C080919602C5
:1019F00084FF2CC080E037C08091960282FD28C011
:101A0000F5CF8091960283FF25C08091960284FDD8
:101A1000F1CF87EE28C08091960283FD1BC0F5CFE1
:101A20008091960285FF18C019C08091960285FFAB
:101A300015C012C08091960286FF12C013C080911B
:101A4000960286FF0FC00CC080EE0DC083EE0BC067
:101A500082EE09C086EE07C085E305C089E203C0B7
:101A600081E301C08AE290E00895CF93C82F0E94DD
:101A7000E320282F30E0309397022093960282FFD4
:101A80000DC08C2F8871883019F4C77FC46006C0E0
:101A90008C2F8471843011F4CB7FC86023FF0DC07C
:101AA0008C2F8871883119F4C77EC46106C08C2FD1
:101AB0008471843111F4CB7EC86124FDC77E8C2FE4
:101AC000CF9108950895CF93DF93EC01FB018281BC
:101AD000811102C081E040C080915201811125C076
:101AE000C631DC45B9F70E94620D81E08093520156
:101AF0000E94FB2190935101809350011092450167
:101B0000109247011092460110924901109248012B
:101B100010924B0110924A0110924D0110924C010B
:101B200010924F0110924E0116C080915001909179
:101B300051010E940722883C910560F68091450181
:101B4000E82FF0E0EE0FFF1FEA5BFE4FD183C0836A
:101B50008F5F8093450180E0DF91CF9108950C94D1
:101B60002D070C942E0785B7806885BF85B78068E0
:101B700085BFA4E2B1E021E030E08D91E82FE2954D
:101B8000EF70F0E041A18F70B90102C0660F771FBE
:101B90008A95E2F7CB01962F9095492341A392A114
:101BA000982B92A371E0A932B70739F7A5E1B1E00C
:101BB00021E030E08D91E82FE295EF70F0E041A157
:101BC0008F70B90102C0660F771F8A95E2F7CB01CB
:101BD000962F9095492341A392A1982B92A371E04F
:101BE000A432B70739F7EDE5F1E0A3E5B1E01192D2
:101BF00011921D921D9281E0E736F807C1F70C940F
:101C0000D10A4F925F927F928F929F92AF92BF9232
:101C1000CF92DF92EF92FF920F931F93CF93DF93B8
:101C200004E211E0C3E5D1E0EE24E394F12C992421
:101C30009394BE01A880B98019821882D8012D9191
:101C40008D01E22FE295EF70F0E081A12F70A701E6
:101C500002C0440F551F2A95E2F79A01842B81A3F5
:101C600082A1842E8094882182A350EA5A95F1F7AC
:101C700045E1442E41E0542E80E090E0D2014D91A8
:101C80002D01C42EC2943FE0C322D12CD6019096E0
:101C90007C90C880D9804F70D70102C0AA0FBB1FAB
:101CA0004A95E2F77A2241F4A701082E02C0440FB8
:101CB000551F0A94E2F702C040E050E04C295D292C
:101CC0005983488301968F309105C1F681A18821FF
:101CD00081A382A1822B82A32296FB018081918124
:101CE000A816B90641F0909267010E94FB219093DB
:101CF000690180936801F1E009321F0709F099CF6B
:101D0000809167018823B1F0809168019091690109
:101D10000E940722069770F0E3E5F1E0ADE5B1E03F
:101D2000819191918D939D9341E0ED35F407C1F739
:101D3000109267010E94650A81E0DF91CF911F91A7
:101D40000F91FF90EF90DF90CF90BF90AF909F905A
:101D50008F907F905F904F900895E82FF0E0EE0F06
:101D6000FF1FE35AFE4F8081918108950895DF920D
:101D7000EF92FF920F931F93CF93DF93493C08F0AC
:101D800048EC662309F44AC0C42FD0E0AFEFB0E0BE
:101D9000A61BB109BE01A69FE001A79FD00DB69F6B
:101DA000D00D1124FD2FDD2E7B01ED1AF1080CE37F
:101DB00010E0B8010E94EB30EB01BC01E69EC001CF
:101DC000E79E900DF69E900D1124B8010E94EB3015
:101DD000C230D105B1F040F4209779F0219709F590
:101DE0008F2FD42E461B20C0C430D10599F068F047
:101DF0002597B9F4842F861B17C08F2FD62EDF0EA0
:101E000013C0862F8F0FD42E03C0D42ED61A842F42
:101E10004F2F0AC0842F462F4F0F06C0842FD42E79
:101E200003C080E0D12C40E0E42FF0E0EA5DF44F05
:101E30004491ED2DF0E0EA5DF44F9491E82FF0E04D
:101E4000EA5DF44FE491D90111964C9311979C935C
:101E50001296EC93DF91CF911F910F91FF90EF902D
:101E6000DF90089588E090E00C945D31AB01BC01F7
:101E700088E090E00C947B3183E0809358021092CC
:101E800059028FEF80935A0280935B02609158024F
:101E90007091590280915A0290915B020C94360F16
:101EA0006091580260FF06C066956F7370E080E035
:101EB00090E0089560E070E0CB01089580915802B1
:101EC00080FF06C060E170E080E692E00C94A2140E
:101ED000E2E6F2E0DF0111971C9211971C9210824A
:101EE000339682E0E239F807A9F7ECCF90915802D7
:101EF00090FF0FC0E2E6F2E0DF0111978C9311979B
:101F00006C934083339692E0E239F907A9F70C9479
:101F10005E0F0895CF92DF92EF92FF920F931F937F
:101F2000CF93DF9300D01F92CDB7DEB7F82EC92E26
:101F3000D62EE42E009158021091590220915A0297
:101F400030915B0200935C0210935D0220935E026D
:101F500030935F028091580280FF1EC09E012F5F68
:101F60003F4F8F2D0E94B70E80915C02F0FA87F9E7
:101F700080935C02F69420915D0220782F29C0FAAC
:101F800027F920935D02D0925E02E0925F024B81BE
:101F900069818A810E94760F0F900F900F90DF91D8
:101FA000CF911F910F91FF90EF90DF90CF90089508
:101FB0008F929F92AF92BF92CF92DF92EF92FF9259
:101FC0000F931F93CF93DF93EC01862E942E809175
:101FD000580280FF8AC0982F9E77923021F4CE015C
:101FE0000E948A0F58C0E82FE695EF739EE39E0F7C
:101FF0009F73943018F490905B024DC09AE39E0F4B
:102000009F73993070F4881F8827881F9091590218
:10201000292F220FC22FC82B97FB992790F9D92F70
:102020003AC087E28E0F8F738A30A8F5F0E0799777
:10203000E0FF02C04FEF01C041E0EE7FE45FF44FEC
:10204000859194919C0184E0369527958A95E1F7D6
:1020500042036001439FD00C11247E0188E9E81AF5
:102060008EEFF80A00E612E098E6A92EBB24B3949E
:10207000C701B5010E94EB309801492D682D0E94DF
:10208000B70EEC0CFD1C0D5F1F4F92E000391907D5
:1020900079F70E945E0F809158029C2FC0FB87F950
:1020A000809358029695809159028078892BD0FBB5
:1020B00087F98093590280925A0290925B02609154
:1020C00058027091590280915A0290915B02DF91FF
:1020D000CF911F910F91FF90EF90DF90CF90BF9025
:1020E000AF909F908F900C94360FDF91CF911F91FE
:1020F0000F91FF90EF90DF90CF90BF90AF909F90A7
:102100008F90089520915802221F2227221F30917C
:102110005902432F440F842F822B37FB992790F9C4
:10212000089668E671E00E94FF3040915B02609182
:102130005A020C94D80F20915802221F2227221FE6
:1021400030915902432F440F842F822B37FB99275C
:1021500090F9883091051CF4805A9E4F01C0089771
:1021600068E671E00E94FF3040915B0260915A0284
:102170000C94D80F60915A02862F90E0883F910509
:1021800014F4685F01C06FEF80915802881F8827A0
:10219000881F90915902292F220F97FB992790F9B8
:1021A00040915B02822B0C94D80F60915A02862FCB
:1021B00090E0089714F0685001C060E080915802E8
:1021C000881F8827881F90915902292F220F97FB7B
:1021D000992790F940915B02822B0C94D80F409183
:1021E0005B02842F90E0883F910514F4485F01C0A2
:1021F0004FEF80915802881F8827881F90915902BD
:10220000292F220F97FB992790F960915A02822B70
:102210000C94D80F40915B02842F90E0089714F043
:10222000485001C040E080915802881F8827881FCD
:1022300090915902292F220F97FB992790F96091CD
:102240005A02822B0C94D80F9091580290FF44C0F0
:102250009178811102C0926003C0833220F09464AF
:102260009093580205C08F73880F892B8093580272
:10227000609158027091590280915A0290915B02CC
:102280000E94360F80915802982F9E77923019F451
:1022900010927F0110C0982F96959F732EE3290FFF
:1022A0002F73273120F491E090937F0104C0995D52
:1022B0009F739A3068F3881F8827881F909159026E
:1022C000292F220F97FB992790F940915B0260918B
:1022D0005A02822B0C94D80F089580912A028160B3
:1022E00080932A0281E0809380010E94C6208111A0
:1022F00004C00E94A0200E943C0F0E94320F6093F5
:1023000058027093590280935A0290935B026E7741
:1023100061F40E943C0F0E94320F60935802709348
:10232000590280935A0290935B0281E080937F016F
:102330008091580280FF04C086958F730C942411FD
:1023400008958091580286958F738F5F833208F0CD
:1023500081E00C9424118091580286958F738150EE
:1023600009F482E20C942411CF93DF93C8E5D2E004
:1023700088818160888360915802709159028091B0
:102380005A0290915B020E94360F888186958F7366
:10239000DF91CF910C942411E8E5F2E080818E7FEB
:1023A0008083609158027091590280915A029091F5
:1023B0005B020E94360F10927F012FEF80E792E0C0
:1023C000215080409040E1F700C000000C945E0F67
:1023D0008091580280FD0C94CC110C94B411CF93D1
:1023E000C82F80917D0190917E010E940722EC2FE1
:1023F000F0E0EE5DF44FE491F0E08E179F0708F4F3
:1024000042C00E94FB2190937E0180937D016091E8
:102410007C0170E080E090E00E94F92E20E030E046
:102420004FE753E40E94322E2BED3FE049E450E4A5
:102430000E941A300E947D300E949F2E2BE43AE3C6
:102440004EE25FE30E94CD2D20EF3BEF48ED52E4DA
:102450000E941A300E94CB2E462F80915802881F6E
:102460008827881F90915902292F220F97FB9927BF
:1024700090F960915A02822B0E948A0F80917C0110
:102480008F5F80937C01CF910895CF93C82F809167
:102490007A0190917B010E940722EC2FF0E0E15E2F
:1024A000F44FE491F0E08E179F07E8F00E94FB21C3
:1024B00090937B0180937A0140915B0260915A0274
:1024C00080917801909179010E948A0F8091780122
:1024D00090917901019668E671E00E94EB3090934B
:1024E000790180937801CF910895DF92EF92FF9266
:1024F0000F931F93CF93DF93D82E80917601909105
:1025000077010E940722ED2DE695F0E0E45EF44F9E
:10251000E491F0E08E179F07F0F10E94FB21909369
:1025200077018093760100E612E0C0E0D0E068E633
:10253000E62EFF24F39480917401909175018C0F25
:102540009D1FB7010E94EB30980140915B026091A2
:102550005A020E94B70E66960D5F1F4FC03681E08B
:10256000D80749F70E945E0F2091740130917501E0
:10257000D0FE0BC0C901019668E671E00E94EB3005
:10258000909375018093740106C0215031093093F6
:10259000750120937401DF91CF911F910F91FF90EE
:1025A000EF90DF900895AF92BF92CF92DF92EF92BB
:1025B000FF920F931F93CF93DF93C82F80FD03C02B
:1025C000BB24B39402C0BB24BA9480917201909151
:1025D00073010E940722C695EC2FF0E0E75EF44FEE
:1025E000E491F0E08E179F0708F465C00E94FB217C
:1025F0009093730180937201F0E6EF2EF2E0FF2ECC
:1026000002E612E0C0E0D0E0F80131971082F70155
:102610001082F8011082E4E0CE2ED12CA12C809102
:1026200071018A0D87FD805F992787FD9095C817F6
:10263000D907E9F480915B028C9DA0018D9D500D1E
:102640001124559547955595479580915802881FB7
:102650008827881F90915902592F550F97FB99276A
:1026600090F9970160915A02852B0E94B70EAB0C2E
:10267000F1E0CF1AD108C114D10489F6219683E084
:10268000E80EF11C0D5F1F4FC031D10509F0BCCF22
:102690000E945E0F8091710191E0B91206C0811114
:1026A00002C08FE006C0815004C090E001968F7098
:1026B000992780937101DF91CF911F910F91FF9026
:1026C000EF90DF90CF90BF90AF900895EF92FF9280
:1026D0000F931F93CF93DF93C82F80916F01909139
:1026E00070010E940722EC2FF0E0EA5EF44FE491C3
:1026F000F0E08E179F0708F465C00E94FB219093BD
:10270000700180936F01E2E6F2E0DF0111971C9205
:1027100011971C921082339682E0E239F807A9F7EC
:1027200002E612E0A0E6EA2EA2E0FA2EC0E0D0E037
:1027300080916E01992787FD9095C817D907ECF015
:1027400080910101992787FD90958C179D07ACF02A
:1027500080915802881F8827881F90915902592F0D
:10276000550F97FB992790F9970140915B02609173
:102770005A02852B0E94B70E07C0F80131971082CC
:10278000F7011082F80110822196F3E0EF0EF11CA0
:102790000D5F1F4FC031D10559F60E945E0F209189
:1027A000000180916E01820F80936E019091010172
:1027B000920F90930101191614F48F301CF021959B
:1027C00020930001DF91CF911F910F91FF90EF9027
:1027D0000895EF92FF920F931F93CF93DF93809111
:1027E0006C0190916D010E940722883E9340C8F1D0
:1027F0000E94FB2190936D0180936C01C0916A014E
:10280000D0916B012196C170DD27D0936B01C093ED
:102810006A0100E612E0F12CB8E7EB2E8F2D8695C9
:10282000FE01E80FF11DCF018170992798014091B9
:102830005B0260915A02FC01EE9EC001EF9E900D7A
:1028400011240E94B70EF3940D5F1F4FF0E1FF12A9
:10285000E5CFDF91CF911F910F91FF90EF900C94F6
:102860005E0FDF91CF911F910F91FF90EF90089530
:1028700080917F01882391F120915802822F8695C3
:102880008F739EE3980F9F73943018F482500C94CA
:10289000EF119AE3980F9F73933018F486500C94BD
:1028A000451297E3980F9F73963018F489500C9453
:1028B000751291E3980F9F73963018F48F500C9413
:1028C000D3129BE2980F9F73933018F485510C94A8
:1028D00066132E77203311F40C94E91308953EB15A
:1028E000242F209523233EB1342B4FB7F894FC01BD
:1028F000680F791FE617F70789F0819198E03EB9D4
:10290000000000C087FF2EB9880F000000C000C083
:1029100000C02EB900C09A9591F7ECCF4FBF089533
:102920002DB1242B2DB99B01220F331F260F371FEA
:10293000B9010E946F1487EC90E00197F1F700C095
:102940000000089544E00C949014909386018093C5
:1029500085010895E0918501F0918601309721F07D
:102960000190F081E02D099480E00895E0918501C7
:10297000F0918601309721F00280F381E02D0994D7
:102980000895E0918501F0918601309721F004804F
:10299000F581E02D099408952091830130918401FF
:1029A0008217930771F09093840180938301E091E3
:1029B0008501F0918601309721F00680F781E02DA6
:1029C0000994089520918101309182018217930723
:1029D00071F09093820180938101E0918501F091E3
:1029E0008601309721F00084F185E02D0994089547
:1029F00008950C94F81481E008950E94F2210E9439
:102A0000B30D0E94C6220E94FB250C946D115F92AB
:102A10006F927F928F929F92AF92BF92CF92DF92EE
:102A2000EF92FF920F931F93CF93DF93CDB7DEB753
:102A30002A970FB6F894DEBF0FBECDBF0E94010EDD
:102A40000E94FB14811111C08FEF89838A831B823E
:102A50000E94FB218160782F9D838C8349815A815C
:102A60006B818D810E94C51557C098E8C92E91E0F1
:102A7000D92E00E010E0AA24A394B12C502E802F70
:102A80000E94AD0E3C01F601E190F1906F01E82645
:102A9000F926E114F10431F40F5F1F4F05301105E1
:102AA00069F7D2CF80912A0281FD0E94B60E20E004
:102AB00030E04501022E02C0880C991C0A94E2F70E
:102AC000C4018E219F21892B09F12E835F8268200A
:102AD000792081E0672809F480E088870E94FB2143
:102AE0008160782F9A8789874E815F8168858A8582
:102AF0000E94C515F801EE0FFF1FE857FE4F8081B9
:102B00009181882599259183808306C02F5F3F4F4F
:102B10002F30310571F6C0CF0E94662510918701D4
:102B20000E94AA141817D9F00E94AA148093870152
:102B30002A960FB6F894DEBF0FBECDBFDF91CF91BE
:102B40001F910F91FF90EF90DF90CF90BF90AF90CB
:102B50009F908F907F906F905F900C94D70A2A96E9
:102B60000FB6F894DEBF0FBECDBFDF91CF911F919E
:102B70000F91FF90EF90DF90CF90BF90AF909F901C
:102B80008F907F906F905F900895CF93DF93CDB734
:102B9000DEB72B970FB6F894DEBF0FBECDBF4F83C5
:102BA000588769877A878B87DE01119686E0FD0159
:102BB00011928A95E9F785E0FE01379601900D9212
:102BC0008A95E1F749815A816B817C818D819E8153
:102BD0000E94191D2B960FB6F894DEBF0FBECDBF15
:102BE000DF91CF910895882309F4F4C08238C1F4AD
:102BF0000E94AA1481FDEEC069E3809102019091C8
:102C000003010E945C210E9434202FEF81EE94E0AA
:102C1000215080409040E1F700C0000069E319C0F6
:102C20008338F9F40E94AA1480FDD4C063E5809132
:102C30000201909103010E945C210E9434202FEF39
:102C400081EE94E0215080409040E1F700C0000008
:102C500063E580910201909103010E9467210C9429
:102C600034208438C1F40E94AA1482FDB3C067E402
:102C700080910201909103010E945C210E94342006
:102C80002FEF81EE94E0215080409040E1F700C0AA
:102C9000000067E4DECF9CEF980F913A40F4682F74
:102CA00080910201909103010E945C21D8CF90E2B3
:102CB000980F983050F4877091E001C0990F8A9571
:102CC000EAF7892F0E946A20CACF9BE5980F9330BC
:102CD00070F4853A29F0863A31F482E890E005C034
:102CE00081E890E002C083E890E00C94CC1498E571
:102CF000980F953108F06EC0883A61F1893A69F110
:102D00008A3A71F18B3A79F18C3A81F18B3B89F1F6
:102D10008C3B91F18D3A99F1803BA1F18E3AA9F16A
:102D20008F3AB1F1813BB9F1823BC1F1833BC9F1EB
:102D3000843BD1F1853BD9F1863BE1F1873BE9F159
:102D4000883BF1F1893BF9F18A3B09F03FC08AE207
:102D500092E03EC082EE90E03BC089EE90E038C049
:102D60008AEE90E035C085EB90E032C086EB90E0D3
:102D70002FC083EB90E02CC084EB90E029C087EB60
:102D800090E026C08CEC90E023C08DEC90E020C059
:102D900083E891E01DC08AE891E01AC082E991E0E1
:102DA00017C084E991E014C081E292E011C083E28F
:102DB00092E00EC084E292E00BC085E292E008C08F
:102DC00086E292E005C087E292E002C080E090E0F7
:102DD0000C94E2140895882309F45DC0823879F4D4
:102DE0000E94AA1481FF57C069E38091020190916B
:102DF00003010E945C210E94342069E310C08338E3
:102E0000B1F40E94AA1480FF46C063E580910201DC
:102E1000909103010E945C210E94342063E580911F
:102E20000201909103010E9467210C9434208438A0
:102E300079F40E94AA1482FF2EC067E480910201F7
:102E4000909103010E945C210E94342067E4E7CF47
:102E50009CEF980F913A10F4682FE1CF90E2980F11
:102E6000983050F4877091E001C0990F8A95EAF785
:102E7000892F0E947020D9CF9BE5980F933020F4C2
:102E800080E090E00C94CC14885A853120F480E0E6
:102E900090E00C94E2140895882321F00E946A20A7
:102EA0000C9434200895882321F00E9470200C9403
:102EB000342008958F929F92BF92CF92DF92EF922B
:102EC000FF920F931F93CF93DF9300D0CDB7DEB760
:102ED0004C01472FFC01C580C2949FE0C922D280DB
:102EE000DD2031F079836A830E9487206A814981DD
:102EF00049836A830E942D2049816A81882389F051
:102F0000DD2079F080E2860F883058F082E00E9460
:102F100016200E942D20BB24B394B82649816A81D3
:102F200001C0B12CE42EE2948FE0E822F12CF701ED
:102F3000E159FF4F0C943531842F807F142F1F707F
:102F4000882311F01295107FDD20C1F0112309F4C0
:102F5000DDC180E2860F883010F0611105C0812F3D
:102F60006A830E946A2004C0812F6A830E947A20AB
:102F70006A816A830E9434206A81C8C1862F6A836D
:102F80000E94EB166A81112309F407C280E2860FC2
:102F9000883010F0611104C0812F0E94702003C09E
:102FA000812F0E9480200E943420F7C1242F207F8F
:102FB000842F8F70203211F08295807F662319F064
:102FC0006130B9F022C0DD2049F0CC2009F452C1B3
:102FD000F1E0CF124FC10E949A20DFC1CC2021F036
:102FE00021E0C21609F4D9C189830E949D208981FC
:102FF00047C1DD2029F095E09C1508F4CEC13AC107
:10300000E4E0EC1508F4C9C13BC1DD2051F0CC204F
:1030100009F430C1F401958190FF78C19F709583C8
:1030200029C1CC2009F42CC182C1242F26952695D4
:10303000237030E02115310521F02130310561F098
:10304000ACC1DD2021F0862F942F937002C080E068
:1030500090E00E94CC14B1C1DD2021F0862F942F86
:10306000937002C080E090E00E94E214A6C1DD20CF
:10307000F9F0653F51F0663F71F0643FA9F480912B
:1030800090029091910281600BC08091900290918A
:103090009102826005C080919002909191028460BB
:1030A0009093910280939002862F0E946E2422C0FA
:1030B000653F51F0663F91F0643FC9F48091900202
:1030C000909191028E7F05C0809190029091910223
:1030D0008D7F909391028093900209C0209190027D
:1030E000309191022B7F3093910220939002862F92
:1030F0000E94D6240E945B2560C1842F837009F052
:103100004EC0D11056C1262F229526952770220F2A
:10311000220F862F8F70C82ED12CE12CF12C022E7D
:1031200004C0CC0CDD1CEE1CFF1C0A94D2F764FF1B
:1031300010C06FE070E080E090E004C0660F771F81
:10314000881F991F2A95D2F7609570958095909564
:1031500003C060E070E0CB01242F269526952370F4
:1031600030E02230310569F02330310589F06C29D7
:103170007D298E299F292130310571F00E94681E1A
:1031800018C16C297D298E299F290E947A1E11C1A0
:103190000E94681EC701B6010E94561E0AC1DD20AA
:1031A00019F0842F817001C08695882309F401C12C
:1031B000262F229526952770220F220F862F8F709B
:1031C000C82ED12CE12CF12C022E04C0CC0CDD1C1D
:1031D000EE1CFF1C0A94D2F764FF10C06FE070E091
:1031E00080E090E004C0660F771F881F991F2A9522
:1031F000D2F7609570958095909503C060E070E07F
:10320000CB01242F26952695237030E022303105FE
:1032100069F02330310589F06C297D298E299F2999
:103220002130310571F00E94161FC3C06C297D2921
:103230008E299F290E94281FBCC00E94161FC7010B
:10324000B6010E94041FB5C0062F10E0F801E05E31
:10325000F109E531F10508F055C0E158FF4F0C9434
:103260003531162F1F70842F8F71DD2031F00E94B1
:10327000AF1E812F0E944C1790C00E94CA1E812F42
:103280000E9453178AC0DD2049F0F4E0FC1508F4D1
:1032900084C0842F8F710E94E91E7FC025E02C1509
:1032A00008F47BC0F6CFDD2039F0842F8F710E94A7
:1032B000AF1E73C0DD20C9F3842F8F710E94CA1E18
:1032C0006CC0DD2029F0842F8F710E94A01E65C084
:1032D0000E949B1E62C0DD2051F0142F1F71812FB0
:1032E0000E94AF1E63E0812F0E940D2056C081E036
:1032F0000E94162081E08C1508F04FC082E00E94E9
:1033000016204BC0DD2031F0CC2079F2862F0E94B0
:10331000F31543C0CC2081F2693349F49FEFE7EE07
:10332000F3E09150E040F040E1F700C00000862F4C
:103330000E94EB1632C04F70C4010E942A070E94FF
:10334000C61D3BC0D11039C0942F9F70892F90E0CB
:103350008230910599F03CF4009769F00197E9F407
:103360000E9434262AC08430910571F054F00597EC
:10337000A1F480E00AC00E9418261FC00E945026B7
:103380001CC00E946A2619C085E00E948F2615C0C5
:103390004F70C4010E94310710C028E0E216F1040A
:1033A00041F05CF09AE0E91AF108E2E0EE16F1046F
:1033B00020F40E94AA140E94D70ABB20F1F00E94B8
:1033C000092080FD1AC0F40112820E9403200E948D
:1033D000AF1EC4010E940B1A0E9403200F900F9091
:1033E000DF91CF911F910F91FF90EF90DF90CF90E1
:1033F000BF909F908F900C94CA1E0F900F90DF91FA
:10340000CF911F910F91FF90EF90DF90CF90BF90E1
:103410009F908F9008950F931F93CF93DF93EC01AC
:10342000288139818B819C81892B31F03F3F11F0BC
:1034300080E003C02F3FE1F781E0811113C0CE018E
:103440000E94A007882371F0688179818A810E9497
:10345000E01F8C010E943A1F0E94531EB801CE014A
:103460000E945A17DF91CF911F910F9108950E94EA
:1034700087200E94972080910201909103010E9471
:1034800072210E9434200E94EF250E945B2580E07B
:1034900090E00E94CC1480E090E00C94E2140E9432
:1034A00077200C94371A0E94D51FE92FE295EF7010
:1034B000F0E03297EE30F105B8F4EC56FF4F0C9483
:1034C0003531803F59F018F4803E70F407C0843FD6
:1034D00059F404C0803E10F0813F31F481E008953A
:1034E00093FB882780F9089580E00895CF93DF93B8
:1034F00000D000D01F92CDB7DEB70F900F900F9085
:103500000F900F90DF91CF910895CF93DF9300D06C
:1035100000D000D0CDB7DEB726960FB6F894DEBF48
:103520000FBECDBFDF91CF9108951F93CF93DF934F
:10353000C091930116E080919401C81799F0D0E0F2
:103540001C9FF0011D9FF00D1124EB56FE4F408192
:10355000518162817381848195810E94851A2196AF
:10356000C770E9CFDF91CF911F9108954091C501B8
:103570005091C6016091C7017091C8018091C90145
:103580009091CA010C94851ACF938091CA018295BB
:103590008F7009F05FC08091C701882309F45AC079
:1035A00020919301A09194016091C5017091C60191
:1035B0008091C8019091C90131E06F3F09F030E07E
:1035C000B32FC6E02A1709F445C0009721F07F3FCA
:1035D00021F44B2F03C041E001C040E030E040FD4A
:1035E00035C0C29FF001C39FF00D1124EB56FE4F72
:1035F000418174132BC04081641328C04281411162
:1036000025C0438154814817590710F4415051098E
:10361000481B590B483C5105C8F48091CA018F7072
:1036200080618093CA0186E0829FF001839FF00D44
:103630001124E656FE4F80818F708061808385EC77
:1036400091E00E940B1ACF910C94951A2F5F3F4F77
:103650002770B8CFCF910895CF92DF92EF92FF926B
:103660000F931F93CF93DF93CDB7DEB762970FB65B
:10367000F894DEBF0FBECDBF8C0185E0F801DE01FE
:103680001D9601900D928A95E1F7D8014C91119603
:103690005C91119712966C9112971396ED90FC9095
:1036A00014977091C501E091C6012091C801309135
:1036B000C9012115310531F0EF3F31F481E07F3F41
:1036C00019F403C081E001C080E0B82FB170CB2EA7
:1036D00080FD6CC1D090C701DD2009F4F5C0F091E8
:1036E000CA01E216F30638F0C701821B930B883C2F
:1036F000910548F09BC0209530952E0D3F1D283C2C
:10370000310508F093C08F2F807F09F052C0E51378
:1037100014C0741312C0D62E61110FC0FF70F06177
:10372000F093CA010E94B61A85EC91E00E940B1A30
:103730008091CA01F80185836CC1EF2831F05F3FA9
:1037400031F481E04F3F19F403C081E001C080E013
:1037500080FD03C081E0862701C080E0F82FF17072
:10376000FF2E80FF1CC0809193012091940136E0D0
:10377000821709F428C190E0389FF001399FF00DBD
:103780001124EB56FE4F7181571306C07081471309
:1037900003C07281671303C001968770E9CFD62EEC
:1037A000662309F436C18091CA0181608093CA0101
:1037B00053C0E51308C0741306C0611104C0D801DA
:1037C0001596FC93AEC04D875E878D859E856A8B6E
:1037D0000E94531A6A89882329F1D62E662311F193
:1037E0002091CA01822F82958F7090E002970CF48D
:1037F00060C08091C5019091C60198878F8319861A
:10380000FB86EA862C87CE01079651C0E51731F179
:103810004D875E878D859E856A8B0E94531A6A89C3
:1038200081112EC0C8010E940B1AA4C08F2F807F67
:1038300069F77E2DF98AE88A89890E94761A85ECD3
:1038400091E00E940B1AE5ECF1E086E0DF011D92A9
:103850008A95E9F70E94B61AD12CDBC07413D8CF31
:103860006111D6CFD8011596FC93C8010E940B1A9E
:10387000E5ECF1E086E0DF011D928A95E9F7C9C029
:10388000D62E662379F22091CA01822F82958F70FD
:1038900090E0029774F08091C5019091C6019A83DF
:1038A00089831B82FD82EC822E83CE0101960E94C9
:1038B0000B1A86E0F801A5ECB1E001900D928A9513
:1038C000E1F70E94C41A6FC0E216F30628F0C701A0
:1038D000821B930B9C0104C0209530952E0D3F1D3B
:1038E000283C310508F052C0D62E662309F49ACF41
:1038F000E5132CC074132AC08091CA0180FD1DC03D
:10390000982F92959F70C9F0D80115968C931597B2
:103910009F3039F09F5F9295907F8F70892B15961D
:103920008C93C8010E940B1A86E0F801A5ECB1E067
:1039300001900D928A95E1F736C086E0F801A5EC7A
:10394000B1E001900D928A95E1F763C04D875E87E3
:103950008D859E850E94531A882379F086E0F801B0
:10396000A5ECB1E001900D928A95E1F70E94C41A8E
:103970000E94B61ADD24D3944CC08091CA018160A4
:103980008093CA01C8010E940B1A43C07E2DF98A98
:10399000E88A89890E94761AE5ECF1E086E0DF0189
:1039A0001D928A95E9F70E94B61A33C0662309F47E
:1039B00039CF4D875E878D859E850E94531A882357
:1039C00009F430CFCBCF4D875E878D859E850E94D1
:1039D000D51F292F22952F7030E0223031052CF48D
:1039E0009F7041F0811106C00CC0243031052CF4C9
:1039F0009F7049F4805E883020F0C8010E940B1A45
:103A0000CF2CDC2C06C0D80115969C91907F91F7A5
:103A1000F8CF8D2D62960FB6F894DEBF0FBECDBFE6
:103A2000DF91CF911F910F91FF90EF90DF90CF909A
:103A300008951F93CF93DF93CDB7DEB72C970FB6C2
:103A4000F894DEBF0FBECDBF4F83588769877A8752
:103A50008B879C87CE0107960E942C1B8823C1F080
:103A60002F8138858A859B85892B31F03F3F11F066
:103A700080E003C02F3FE1F781E0811147C04F8113
:103A8000588569857A858B859C850E94851A3EC0FC
:103A900086E0FE013796DE01119601900D928A951F
:103AA000E1F7FF81E8854A855B854115510531F0D5
:103AB000EF3F31F481E0FF3F19F403C081E001C022
:103AC00080E080FD23C02091940130E0C90101967F
:103AD000877099276091930170E086179707F1F13D
:103AE000F983EA835D834C8396E0929FD001939F94
:103AF000B00D1124AB56BE4FFE01319601900D92D0
:103B00009A95E1F7809394010E94951A16E08091AE
:103B1000930190919401891779F1189FC0011124A4
:103B20008B569E4F0E942C1B882331F1E09193010C
:103B30001E9FF0011124EB56FE4F4081518162819E
:103B40007381848195810E94851A8091930190E010
:103B500001968770992780939301D9CF0E944F1ABD
:103B60001092940110929301E5ECF1E086E0DF0100
:103B70001D928A95E9F7CACF2C960FB6F894DEBF4E
:103B80000FBECDBFDF91CF911F910895EF92FF92AD
:103B90000F931F93CF93DF93FC01009709F46FC03D
:103BA000F12CEE24E394EF0121968491843740F4C4
:103BB000843008F055C0813081F0823021F15FC03F
:103BC000853709F447C0C0F19CE7980F903708F09B
:103BD00056C08F770E94EB1645C08F010E5F1F4FB6
:103BE000FE01849190E2980F983050F48770FE2D7A
:103BF00001C0FF0F8A95EAF78F2F0E948A2015C017
:103C00000E94F31514C08F010E5F1F4FFE018491B7
:103C100090E2980F983068F48770FE2D01C0FF0F76
:103C20008A95EAF78F2F0E9490200E943420E801A5
:103C300019C00E94EB16FBCFCF010296FE01C49182
:103C4000CC2361F0EFE9FFE03197F1F700C000000D
:103C5000C150F6CFCF010296FE01F490EC0102C0F4
:103C60000E94F3158F2D882341F0EFE9FFE0319793
:103C7000F1F700C000008150F6CFFE0194CFDF9134
:103C8000CF911F910F91FF90EF90089508950E949A
:103C9000461E609301027093020280930302909388
:103CA00004020C94371A08950C94471E0F931F9327
:103CB000009101021091020220910302309104024E
:103CC000602B712B822B932B1F910F910C94471E0D
:103CD0000F931F93009101021091020220910302A1
:103CE0003091040260237123822393231F910F914B
:103CF0000C94471E0F931F93009101021091020232
:103D000020910302309104026027712782279327B4
:103D10001F910F910C94471E08950C948C1E0E94C5
:103D20008D1E6093FD017093FE018093FF019093BF
:103D300000020C94371A60E070E0CB010C948F1EE7
:103D400041E050E060E070E004C0440F551F661F82
:103D5000771F8A95D2F7CB01BA010C948F1E41E0F0
:103D600050E060E070E004C0440F551F661F771FED
:103D70008A95D2F78091FD019091FE01A091FF01FB
:103D8000B0910002482B592B6A2B7B2BCB01BA0137
:103D90000C948F1E41E050E060E070E004C0440FDE
:103DA000551F661F771F8A95D2F7409550956095ED
:103DB00070958091FD019091FE01A091FF01B0915D
:103DC0000002482359236A237B23CB01BA010C94B8
:103DD0008F1E41E050E060E070E004C0440F551FCA
:103DE000661F771F8A95D2F78091FD019091FE01A1
:103DF000A091FF01B0910002482759276A277B272D
:103E0000CB01BA010C948F1E0F931F930091FD01FB
:103E10001091FE012091FF0130910002602B712B67
:103E2000822B932B1F910F910C948F1E0F931F9336
:103E30000091FD011091FE012091FF0130910002DF
:103E400060237123822393231F910F910C948F1E63
:103E50000F931F930091FD011091FE012091FF012E
:103E60003091000260277127822793271F910F91BD
:103E70000C948F1E08952FE0929F800D1124482FDF
:103E80004695469546958770B1E001C0BB0F8A956F
:103E9000EAF785E0489FA001112445535E4F80E07A
:103EA00090E070E0FA01E80FF91FA0819B01082E55
:103EB00002C0369527950A94E2F7217033272195A1
:103EC0002A272B232A27208301968530910551F735
:103ED00008952FE0929F800D1124682F66956695B6
:103EE0006695982F977085E0689FB00111246553FF
:103EF0007E4F40E050E080E0FB01E40FF51F2081A1
:103F000030E0092E02C0369527950A94E2F7217019
:103F10003327042E01C0220F0A94EAF7822B4F5F49
:103F20005F4F4530510541F70895CF92DF92EF92F0
:103F3000FF920F931F93CF93DF93EC01C090010288
:103F4000D0900202E0900302F09004028091FD0103
:103F50009091FE01A091FF01B0910002C82AD92AD8
:103F6000EA2AFB2A0FE110E0B701A601002E04C0E7
:103F700076956795579547950A94D2F740FD05C009
:103F80000150110988F780E007C0BE01802F0E9410
:103F9000F30A0197A9F3802FDF91CF911F910F9121
:103FA000FF90EF90DF90CF900895CF93DF93EC01D7
:103FB0000E94951FBE010E94F30ADF91CF910895E0
:103FC0001F93CF93DF93EB0190919201992321F0FE
:103FD000CB010E94D51F13C0882349F0CB010E945A
:103FE000951F182F682FCE010E943B1F04C0CB01E4
:103FF0000E94691F182FBE01812F0E94F30ADF91D2
:10400000CF911F910895809105028595859585959D
:104010000895809105028770089598E0899F900126
:104020001124622B609305020C94AF1E409105028F
:104030008095842380930502982F977069F450E04F
:10404000282F332727FD30954217530729F08595F0
:10405000859585950C94CA1E0895909105029770D8
:1040600081E009F480E00895E0910201F0910301FC
:10407000809129028083E0910201F0910301808107
:1040800090912802892B8083E0910201F091030135
:10409000808190912702892B808390910602992339
:1040A00081F0E0910201F09103018081892B8083EE
:1040B00080910201909103010E94F52081111092DC
:1040C000060280910201909103010C94B614809134
:1040D0002902089590912902982B9093290208951E
:1040E0008095909129029823909329020895109227
:1040F0002902089590912802982B90932802089500
:104100008095909128029823909328020895109208
:104110002802089590912702982B909327020895E2
:1041200080959091270298239093270208951092EA
:1041300027020895809306020895109206020895BA
:104140006DEE7EEF80E090E00E94873160E082E0DB
:1041500090E00E94693160E083E090E00E94693164
:1041600060E084E090E00E94693160E085E090E0EA
:104170000E94693160E086E090E00E94693140E091
:1041800050E0BA0188E090E00C947B3180E090E050
:104190000E94633121E08D3E9E4F09F020E0822F86
:1041A000089582E090E00C945531682F82E090E011
:1041B0000C94693183E090E00C945531682F83E0D2
:1041C00090E00C94693184E090E00C945531682FB4
:1041D00084E090E00C94693186E090E00C945531D5
:1041E000682F86E090E00C94693120E030E040E0F8
:1041F000FC01E20FF31F518151114F5F2F5F3F4FC1
:104200002F313105A9F7842F089520E030E04FEFDA
:10421000FC01E20FF31F5281561799F04F3F19F43A
:10422000511101C0422F2F5F3F4F2E31310581F7D1
:104230004F3F39F0FC01E40FF11D47FDFA95628311
:104240000895089520E030E0FC01E20FF31F428161
:10425000461301C012822F5F3F4F2E313105A1F767
:104260000895262F2695269526952F3170F4FC016A
:10427000E20FF11D677021E030E0062E01C0220F31
:104280000A94EAF78181822B81830895262F26954F
:10429000269526952F3178F4FC01E20FF11D677009
:1042A00021E030E0062E01C0220F0A94EAF72095A3
:1042B000818128232183089520911401222329F04C
:1042C0002091960227FD0C9431210C940521209118
:1042D0001401222329F02091960227FD0C944621F7
:1042E0000C94222120E030E0FC01E20FF31F118248
:1042F0002F5F3F4F2F313105B9F7089580919D020F
:10430000843039F110922B0220E488E190E00FB65E
:10431000F894A895809360000FBE2093600080E021
:104320000E94670A80E00E94D70A83B7817F846079
:1043300083BF83B7816083BF7894889583B78E7F6E
:1043400083BF88E10FB6F8948093600010926000FC
:104350000FBE089508950895CF930E94AA210E9448
:10436000010E0E94AB21C0E08C2F0E94AD0E892B64
:1043700029F4CF5FC530C1F780E001C081E0CF9163
:1043800008950E944F1A0E94FB250E94AA140C94C3
:10439000D70A1F920F920FB60F9211248F939F93FB
:1043A000AF93BF9380912B02811113C08091920231
:1043B00090919302A0919402B09195024196A11D13
:1043C000B11D8093920290939302A0939402B093B4
:1043D0009502BF91AF919F918F910F900FBE0F905B
:1043E0001F90189582E084BD93E095BD9AEF97BD2C
:1043F00080936E0008952FB7F89480919202909167
:104400009302A0919402B09195022FBF0895CF928C
:10441000DF92EF92FF920F931F932FB7F894409182
:1044200092025091930260919402709195022FBF75
:104430006A017B01EE24FF248C0120E030E0C016ED
:10444000D106E206F30610F441505109481B590BFE
:10445000CA011F910F91FF90EF90DF90CF900895C8
:1044600078941F920F920FB60F9211248F939F93FF
:10447000AF93BF938091920290919302A091940286
:10448000B09195020196A11DB11D80939202909367
:104490009302A0939402B0939502BF91AF919F9124
:1044A0008F910F900FBE0F901F90189581E0809311
:1044B000E00080E28093D8001092C9008FE19EE472
:1044C0000197F1F700C0000087E090EBDC018093DA
:1044D000A6029093A702A093A802B093A9022CE091
:1044E00088E190E00FB6F894A895809360000FBE25
:1044F00020936000FFCFBF92CF92DF92EF92FF92A6
:104500000F931F93CF93DF93B12C01E010E0E82EBF
:10451000F12C8B2D0E94AD0E6C01C0E0D0E0980113
:104520000C2E02C0220F331F0A94E2F72C213D21EA
:10453000232B29F42196CF30D10589F70AC06C2F9F
:104540007B2D80E00E94D90AE816F90699F781E0F0
:1045500005C0B39485E0B812DCCF80E0DF91CF9145
:104560001F910F91FF90EF90DF90CF90BF90089533
:10457000CF93C82F8CE20E947B22882321F08C2FBE
:10458000CF910C947B2280E0CF910895CF930E942D
:10459000C620811102C00E94A020C5E6C15049F08A
:1045A0000E94010E8FE39CE90197F1F700C0000023
:1045B000F5CF89E20E94B82281110DC18AE20E94E2
:1045C000B82281110E94A02085E00E94B8228111AA
:1045D0000E9456220E94D12080932A0287E00E94E6
:1045E000B822882399F18BE10E94B822882351F0E8
:1045F00090912A0291FB882780F921E0822780FB95
:1046000091F922C08EE00E94B822882351F0909147
:104610002A0292FB882780F921E0822780FB92F909
:1046200013C080E10E94B82290912A02882341F0B1
:1046300093FB882780F921E0822780FB93F904C04F
:10464000892F809580FB90F990932A0280912A020D
:104650000E94D5200E94E32090E0909397028093DF
:10466000960280EE0E94B822882341F08091960243
:10467000982F909590FB80F98093960289E30E9491
:10468000B822882359F09091960291FB882780F9EF
:1046900021E0822780FB91F99093960282EE0E949E
:1046A000B822882359F09091960292FB882780F9CE
:1046B00021E0822780FB92F99093960286EE0E9479
:1046C000B822882359F09091960293FB882780F9AD
:1046D00021E0822780FB93F99093960283EE0E945B
:1046E000B822882359F09091960294FB882780F98C
:1046F00021E0822780FB94F99093960285E30E9443
:10470000B822882359F09091960295FB882780F96A
:1047100021E0822780FB95F99093960281E30E9425
:10472000B822882359F09091960296FB882780F949
:1047300021E0822780FB96F99093960281E10E9406
:10474000B822882359F09091960297FB882780F928
:1047500021E0822780FB97F9909396028091960240
:104760000E94E72087E20E94B822C82F8EE10E94B3
:10477000B8228111C2608FE10E94B8228111C46009
:1047800080E20E94B8228111C86081E20E94B822B2
:104790008111C06182E20E94B8228111C06283E26D
:1047A0000E94B8228111C06484E20E94B82288234A
:1047B00011F0C06802C0CC2329F08C2F0E94DE20AB
:1047C0006C2F03C00E94DA20682F70E080E090E038
:1047D000CF910C94541ECF91089580912E0280FFAA
:1047E0000BC06091070185E0689FB00111247595A9
:1047F0006795759567952AC081FF09C0609107018B
:1048000085E0689FB0011124759567951FC082FFF0
:1048100007C06091070185E0689FB001112416C0B0
:1048200040912F024423C9F060910601461788F792
:104830002091070185E0289F90011124429FC0012B
:10484000439F900D112470E00E94FF306038710585
:1048500040F46115710539F002C065E070E0862F03
:1048600008958FE7089581E0089580912E0280FFDA
:1048700008C06091050170E075956795759567951D
:1048800021C081FF06C06091050170E075956795B4
:1048900019C082FF04C06091050170E010C08091D2
:1048A0002F028823C1F0609104018617A0F7909130
:1048B0000501989FC001112470E00E94FF3060380C
:1048C000710528F46115710521F0862F08958FE791
:1048D000089581E0089561E070E0F4CF803F21F415
:1048E0000E94ED23819504C0813F29F40E94ED23AD
:1048F000809332020895823F21F40E94ED23819536
:1049000004C0833F29F40E94ED238093310208956F
:10491000893F19F40E94352405C08A3F31F40E9472
:10492000352481958093330208958B3F21F40E94B2
:104930003524819504C08C3F29F40E94352480934E
:1049400034020895843F21F480913002816017C0C1
:10495000853F21F480913002826011C0863F21F4AE
:104960008091300284600BC0873F21F48091300237
:10497000886005C0883F31F4809130028061809367
:10498000300208958D3F21F480912E0281600BC08A
:104990008E3F21F480912E02826005C08F3F29F462
:1049A00080912E02846080932E020895803F39F416
:1049B0008091320287FF6CC01092320269C0813F41
:1049C00029F4809132021816BCF362C09091310232
:1049D000823F29F497FF5CC01092310259C0833F97
:1049E00019F41916CCF354C0893F41F48091330275
:1049F00018160CF04DC0109233024AC08A3F29F4B9
:104A00008091330287FF44C0F6CF8B3F39F4809109
:104A1000340287FF3DC0109234023AC08C3F29F423
:104A2000809134021816BCF333C0843F21F4809186
:104A300030028E7F17C0853F21F4809130028D7F38
:104A400011C0863F21F4809130028B7F0BC0873FDD
:104A500021F480913002877F05C0883F31F4809136
:104A600030028F7E8093300213C08D3F21F48091FD
:104A70002E028E7F0BC08E3F21F480912E028D7FFF
:104A800005C08F3F29F480912E028B7F80932E02E8
:104A90008091310281110EC08091320281110AC0D1
:104AA00080913302811106C080913402811102C0CD
:104AB00010922F02089580E392E00E94C1140E9498
:104AC000FB2190932D0280932C0208951F93CF9386
:104AD000DF9380912C0290912D020E940722409139
:104AE0002F02442321F02091080130E006C02091DC
:104AF00009015AE0259F900111248217930708F4B9
:104B00006AC08091310210913202D0913302C0917B
:104B10003402811107C0111105C0D11103C0CC238B
:104B200009F459C04F3F19F04F5F40932F021816F8
:104B300024F40E94ED23809331028091310287FF9B
:104B400005C00E94ED23819580933102111624F453
:104B50000E94ED23809332028091320287FF05C0CC
:104B60000E94ED238195809332022091310222230D
:104B700079F040913202442359F055EB250390011E
:104B80001124309331024503C00111249093320265
:104B90001D1624F40E943524809333028091330241
:104BA00087FF05C00E9435248195809333021C162F
:104BB00024F40E943524809334028091340287FFCC
:104BC00005C00E943524819580933402DF91CF91F6
:104BD0001F910C945B25DF91CF911F910895E0E325
:104BE000F2E085E0DF011D928A95E9F710922F022D
:104BF00010922E0208950E94C620811102C00E94C8
:104C0000A0200E94EC2080939802282F269530E067
:104C10002630310524F081708A608093980280915B
:104C2000980280FF02C0869501C080E00C94670A5C
:104C300020919802322F3695832F90E0059744F407
:104C400091E0930F990F822F8170892B80939802A6
:104C5000809198028160809398020E94F020809158
:104C6000980286950C94670A80919802982F9695E1
:104C700091F09158990F8170892B809398028E7FC3
:104C800091E009F490E08091980290FB80F9809384
:104C900098020E94F0208091980286950C94670AF1
:104CA00080919802982F909590FB80F980939802BC
:104CB000813019F483E080939802809198020E94D9
:104CC000F0208091980280FF02C0869501C080E0AC
:104CD0000C94670A30919802232F26952F5F2F7727
:104CE000822F90E0317006972CF4220F232B209313
:104CF000980202C030939802809198028E7F91E0D2
:104D000009F490E08091980290FB80F980939802DA
:104D10000E94F0208091980286950C94670A863054
:104D200008F085E0880F909198029170982B9093ED
:104D300098029E7F21E009F420E08091980220FBF8
:104D400080F9809398020E94F020809198028695C5
:104D50000C94670A8091550208950F931F93CF9387
:104D6000DF9300D01F92CDB7DEB78C010E942129BE
:104D7000823011F0843019F583E089831B830A8324
:104D80008093E9008FEF9091E800815095FD06C077
:104D900095ED9A95F1F700008111F5CF8091E8002B
:104DA00085FF0DC040E050E063E070E0CE01019669
:104DB0000E943E298091E8008E778093E8000F9052
:104DC0000F900F90DF91CF911F910F910895CF9386
:104DD000DF9300D01F92CDB7DEB720919D02243023
:104DE00031F522E02983805891099B838A8383E0EF
:104DF0008093E9008FEF9091E800815095FD06C007
:104E000095ED9A95F1F700008111F5CF8091E800BA
:104E100085FF0DC040E050E063E070E0CE010196F8
:104E20000E943E298091E8008E778093E8000F90E1
:104E30000F900F90DF91CF910895CF93DF93EC0106
:104E40000E942129823011F08430F9F482E08093AD
:104E5000E9008FEF9091E800815095FD06C095ED37
:104E60009A95F1F700008111F5CF8091E80085FF58
:104E70000CC040E050E065E070E0CE010E943E29A9
:104E80008091E8008E778093E800DF91CF910895BC
:104E9000CF93DF93EC010E942129823019F08430F6
:104EA00009F047C0809114018823E1F080919602B7
:104EB00087FF18C084E08093E9008FEF9091E800AD
:104EC000815095FD06C095E19A95F1F7000081119A
:104ED000F5CF8091E80085FF2CC040E050E060E213
:104EE00070E017C081E08093E9008FEF9091E800B7
:104EF000815095FD06C095ED9A95F1F7000081115E
:104F0000F5CF8091E80085FF14C040E050E068E0F4
:104F100070E0CE010E943E298091E8008E77809358
:104F2000E80080E2FE01A5E3B2E001900D928A95CF
:104F3000E1F7DF91CF91089580919C02811109C022
:104F40000E94D02A0E942D2B8091E20084608093E1
:104F5000E200089510929C020895089508950C941B
:104F6000C12142E061EC81E00E944A2A42E061EC0A
:104F700082E00E944A2A42E061EC83E00E944A2AD1
:104F800042E261EC84E00C944A2A80919F028330D3
:104F900009F455C030F4813071F0823009F48EC0CC
:104FA00008958A3009F47AC08B3009F460C08930E2
:104FB00009F09CC020C080919E02813A09F096C001
:104FC0008091E800877F8093E8008091A202909111
:104FD000A302892B21F060E080E090E003C060E252
:104FE00085E392E070E00E9487298091E8008B774A
:104FF0008093E800089580919E02813209F076C086
:105000008091A2029091A302009719F0039709F0F2
:105010006DC08091E800877F8093E8008091E80070
:1050200082FD05C080919D028111F8CF5FC0809103
:10503000F100809355028091E8008B7753C08091F6
:105040009E02813A09F052C08091A2029091A3027F
:10505000892B09F04BC08091E800877F8093E8009E
:105060008091E80080FFFCCF8091140136C08091D0
:105070009E028132D9F58091A2029091A302892BE0
:10508000A9F58091E800877F8093E8000E947F2A3D
:105090008091A002809314010C944F1A80919E027B
:1050A000813221F58091E800877F8093E8000E949B
:1050B0007F2A8091A10280935602089580919E02DA
:1050C000813AA1F48091E800877F8093E800809185
:1050D000E80080FFFCCF809156028093F100809120
:1050E000E8008E778093E8000C947F2A089584B7B7
:1050F000877F84BF88E10FB6F89480936000109298
:1051000060000FBE80E880936100109261000E94F1
:10511000F9140E94D02A0E942D2B8091E200846015
:105120008093E20078940E94B02D0E94FD148AE0E2
:1051300091E00E94A51480919D02853069F40E943F
:105140007E2180919B028823B1F30E94AC218823A9
:1051500091F30E942829EFCF0E9407150E9438146E
:10516000EACF292F332723303105A9F06CF4213001
:10517000310509F448C02230310509F049C08DE6F7
:1051800090E02CE43CE048C021323105F9F02232B5
:10519000310549F13DC099278130910571F02CF41A
:1051A000892BB1F5E8E4FCE00DC08230910541F0B7
:1051B000039771F5E6E2FCE005C0EEE3FCE002C017
:1051C000ECE2FCE0849190E09F0126C06430710520
:1051D000F8F4FB01EE0FFF1FEB5CFE4F20813181E5
:1051E00089E090E019C06430710590F4FB01EE0F86
:1051F000FF1FE35DFE4F20813181FB01E75DFE4F24
:10520000808190E009C082E190E029EB3CE004C09D
:1052100080E090E020E030E0FA01318320830895BF
:105220000895CF93C82F0E941029C0935702CF91A1
:10523000089580919D02843011F482E0089581E008
:10524000089580915702811102C00C941929089584
:1052500080E189BD82E189BD09B400FEFDCF809166
:10526000D8008F7D8093D8008091E0008260809389
:10527000E0008091E00081FDFCCF0895CF92DF92A5
:10528000EF92FF920F931F93CF93DF937C018B01DB
:10529000EA010E94A02A811131C0209731F0888153
:1052A0009981081B190BE80EF91EC12CD12C011590
:1052B000110519F18091E80085FD14C08091E80086
:1052C0008E778093E800209741F0888199818C0D3A
:1052D0009D1D9983888385E011C00E94A02A8823A0
:1052E00031F30CC0F70181917F018093F1000150EF
:1052F0001109FFEFCF1ADF0ADACF80E0DF91CF91FB
:105300001F910F91FF90EF90DF90CF900895209123
:10531000A4023091A5022617370748F061157105E0
:1053200039F42091E8002E772093E80001C0B901FC
:10533000FC0120E061157105B9F180919D0288237F
:1053400009F440C0853009F43FC08091E80083FD36
:105350003DC08091E80082FF06C08091E80082FF96
:1053600026C080E008958091E80080FFE3CF20917F
:10537000F3008091F20090E0922B6115710551F0DD
:105380008830910538F421912093F1006150710922
:105390000196F3CF21E0089709F020E08091E80022
:1053A0008E778093E800C6CF2111C7CFD6CF8091EA
:1053B0009D02882339F0853039F08091E80083FF21
:1053C000CCCF04C082E0089583E0089581E0089581
:1053D0002091A4023091A5022617370748F06115E5
:1053E000710539F42091E8002E772093E80001C080
:1053F000B901FC0120E061157105C1F180919D02A8
:10540000882309F441C0853009F440C08091E80048
:1054100083FD3EC08091E80082FF06C08091E800D5
:1054200082FF27C080E008958091E80080FFE3CFED
:105430002091F3008091F20090E0922B61157105AC
:1054400059F08830910540F424912093F100319671
:10545000615071090196F2CF21E0089709F020E030
:105460008091E8008E778093E800C5CF2111C6CFE8
:10547000D5CF80919D02882339F0853039F0809115
:10548000E80083FFCBCF04C082E0089583E0089555
:1054900081E00895982F973058F59093E900981778
:1054A00039F07091EC002091ED005091F00003C0B4
:1054B000242F762F50E021FF19C03091EB003E7F62
:1054C0003093EB003091ED003D7F3093ED00309153
:1054D000EB0031603093EB007093EC002093ED0013
:1054E0005093F0002091EE0027FF07C09F5FD3CFBD
:1054F0008F708093E90081E0089580E008958091A5
:105500009E0287FD05C08091E80080FF0EC012C09A
:105510008091E80082FD05C080919D028111F8CF45
:1055200008958091E8008B7708C080919D028111D9
:10553000EACF08958091E8008E778093E80008957F
:105540008091E4009091E50045E62091EC0020FF79
:1055500021C02091E80020FD21C020919D0222233E
:1055600089F0253089F02091EB0025FD0FC02091B6
:10557000E4003091E5002817390739F3415041F034
:10558000C901E3CF82E0089583E0089581E00895A2
:1055900084E008952091E80022FFDFCF80E00895A5
:1055A0000E943E2B0E94462BE0EEF0E0808181605D
:1055B0008083E8EDF0E080818F77808319BCA7EDD0
:1055C000B0E08C918E7F8C9380818F7E808310924F
:1055D0009C0208950F931F93CF93DF930E943E2B5D
:1055E0000E94462BC8EDD0E088818F778883888120
:1055F0008068888388818F7D888319BC10929D0282
:105600001092990210929B0210929A0200EE10E002
:10561000F80180818B7F808388818160888342E06C
:1056200060E080E00E944A2AE1EEF0E080818E7F17
:105630008083E2EEF0E080818160808380818860F9
:105640008083F80180818E7F808388818061888358
:10565000DF91CF911F910F910895E8EDF0E08081E7
:105660008F7E8083E7EDF0E080818160808384E03D
:1056700082BF81E080939C020C94EA2AE8EDF0E07E
:1056800080818E7F80831092E20008951092DA006C
:105690001092E10008951F920F920FB60F921124FD
:1056A0002F933F934F935F936F937F938F939F932A
:1056B000AF93BF93EF93FF938091E10082FF0BC004
:1056C0008091E20082FF07C08091E1008B7F809390
:1056D000E1000E94AF2D8091DA0080FF1FC0809111
:1056E000D80080FF1BC08091DA008E7F8093DA00A3
:1056F0008091D90080FF0DC080E189BD82E189BD24
:1057000009B400FEFDCF81E080939D020E949C279A
:1057100005C019BC10929D020E94AA278091E10049
:1057200080FF19C08091E20080FF15C08091E200E7
:105730008E7F8093E2008091E20080618093E2009E
:105740008091D80080628093D80019BC85E0809356
:105750009D020E94AE278091E10084FF30C08091BD
:10576000E20084FF2CC080E189BD82E189BD09B4DB
:1057700000FEFDCF8091D8008F7D8093D80080916E
:10578000E1008F7E8093E1008091E2008F7E809324
:10579000E2008091E20081608093E20080919902B2
:1057A000882311F084E007C08091E30087FF02C0E6
:1057B00083E001C081E080939D020E94AF27809129
:1057C000E10083FF29C08091E20083FF25C0809122
:1057D000E100877F8093E10082E080939D02109238
:1057E00099028091E1008E7F8093E1008091E20038
:1057F0008E7F8093E2008091E20080618093E200DE
:1058000042E060E080E00E944A2A8091F0008860D7
:105810008093F0000E94AD27FF91EF91BF91AF916F
:105820009F918F917F916F915F914F913F912F91B8
:105830000F900FBE0F901F9018951F920F920FB6EA
:105840000F9211242F933F934F935F936F937F9306
:105850008F939F93AF93BF93CF93EF93FF93C09199
:10586000E900CF708091EC001092E9008091F00087
:10587000877F8093F00078940E94592C1092E90061
:105880008091F00088608093F000C093E900FF9160
:10589000EF91CF91BF91AF919F918F917F916F9138
:1058A0005F914F913F912F910F900FBE0F901F90DE
:1058B00018951F93CF93DF93CDB7DEB7AA970FB696
:1058C000F894DEBF0FBECDBFEEE9F2E08091F100AB
:1058D000819322E0E63AF207C9F70E94C52780913A
:1058E000E80083FF24C120919E0230919F02832F04
:1058F00090E08A30910508F01AC1FC01EE55FF4F87
:105900000C943531203821F0223809F010C108C03C
:1059100080919A0290919B02992389F082600FC036
:105920008091A2028F70873008F001C18093E90056
:105930008091EB0085FB882780F91092E900909117
:10594000E800977F9093E8008093F1001092F100B7
:10595000CCC0822F8D7F09F0EAC0222319F02230BB
:1059600061F0E5C08091A002813009F0E0C03330E1
:1059700009F080E080939B022AC08091A0028111EF
:1059800026C02091A2022F708FEF820F863008F080
:10599000CEC02093E9008091EB0080FF18C0809179
:1059A000EB00333011F4806210C080618093EB0013
:1059B00081E090E001C0880F2A95EAF78093EA0021
:1059C0001092EA008091EB0088608093EB001092C7
:1059D000E9008091E800877F8093E8000E947F2A99
:1059E000A6C02111A4C01091A0021F778091E300EE
:1059F0008078812B8093E3008091E800877F8093FB
:105A0000E8000E947F2A8091E80080FFFCCF80910F
:105A1000E30080688093E300112311F083E001C06C
:105A200082E080939D0283C02058223008F07FC01E
:105A30008091A0029091A1028C3D23E0920779F51C
:105A400083E08A838AE289834FB7F894DE01139654
:105A500020E03EE051E2E32FF0E050935700E49164
:105A600020FF03C0E295EF703F5FEF708E2F90E054
:105A7000EA3010F0C79601C0C0968D939D932F5FBA
:105A8000243149F74FBF8091E800877F8093E80079
:105A90006AE270E0CE0101960E94872915C06091EC
:105AA000A2027091A302AE014F5F5F4F0E94B12826
:105AB0000097E9F12091E800277F2093E800BC01DE
:105AC00089819A810E94E8298091E8008B778093F0
:105AD000E8002DC0203859F58091E800877F809339
